:040000000CEF00F011
:10000800FACF27F0FBCF28F0E9CF29F0F0ED00F088
:1000180074EF03F00BC00FF0106A116A0A340F3640
:1000280001E310800F50146E0EC00FF0106A116AB1
:100038000D340F3601E310800F50136E1450D8B4EE
:100048000BD01350145CD8B00ED0145000081324F1
:100058000F6E180E0F6407D00CC009F00DC00AF01F
:100068000EC00BF0B8D01350D8B40BD01450135C9A
:10007800D8B00ED01350000814240F6E180E0F6459
:1000880007D009C009F00AC00AF00BC00BF0A3D0D2
:10009800060E126E0BAE02D0128E00D00EBE128C5F
:1000A8000A8EFF0E0916FF0E0A16000E0B160D8E8D
:1000B800FF0E0C16FF0E0D16000E0E161350145CD4
:1000C800D8B01ED0D8900C360D360E361306145004
:1000D8001318D8B40FD0120612C00FF0070E0F165F
:1000E800D8B408D0EFD706D0D8900B320A320932EC
:1000F800142A00D013501418D8B424D0F5D722D01D
:100108001450135CD8B01ED0D89009360A360B3676
:10011800140614501318D8B40FD0120612C00FF0DA
:10012800070E0F16D8B408D0EFD706D0D8900E32E5
:100138000D320C32132A00D013501418D8B402D040
:10014800F5D700D012AE0CD0FF0E091AFF0E0A1A0E
:10015800FF0E0B1A010E0926000E0A22000E0B22B2
:1001680012AC0DD0FF0E0C1AFF0E0D1AFF0E0E1A50
:10017800010E0C26000E0D22000E0E2200D0000EDD
:10018800126E09500C260A500D220B500E220EAE8C
:100198000FD0FF0E0C1AFF0E0D1AFF0E0E1A010ECD
:1001A8000C26000E0D22000E0E22010E126E00D03B
:1001B8000CC001F00DC002F00EC003F014C004F032
:1001C80012C005F061EC02F001C009F002C00AF0AB
:1001D80003C00BF000D012000600EACF2AF0E1CFEE
:1001E8002BF0E2CF2CF0D9CF2DF0DACF2EF0F3CFD1
:1001F8002FF0F4CF30F0F6CF31F0F7CF32F0F8CF60
:1002080033F0F5CF34F01C0ED66EF294F00E0C6E6F
:100218007F0E0D6E450E0E6E37C009F038C00AF01D
:1002280039C00BF072EC01F009C018F00AC019F0DF
:100238000BC01AF0EEEC01F018C035F019C036F01A
:1002480035C003F036C004F064EC03F037C009F0A1
:1002580038C00AF039C00BF0CD0E0C6ECC0E0D6E06
:100268003D0E0E6E0EEC00F009C037F00AC038F0F3
:100278000BC039F0000E016E800E026E3F0E036E49
:1002880037C004F038C005F039C006F0C4EC02F0FD
:10029800D8B007D0000E376E000E386E000E396EDB
:1002A80000D034C0F5FF33C0F8FF32C0F7FF31C0CB
:1002B800F6FF30C0F4FF2FC0F3FF2EC0DAFF2DC0C9
:1002C800D9FF2CC0E2FF2BC0E1FF2AC0EAFF29C0FA
:1002D800E9FF28C0FBFF27C0FAFF11000BC00FF091
:1002E800106A116A0A340F3601E310800F50126E3B
:1002F8001250D8A402D00ED06CD00EC00FF0106AE5
:10030800116A0D340F3601E310800F50176E175025
:10031800D8A407D0000E096E000E0A6E000E0B6EF0
:1003280058D017507B0F12260BC017F00E50171A13
:10033800800E17160A8E0D8EFF0E0C16FF0E0D1668
:10034800000E0E16000E136E000E146E000E156EC3
:10035800070E166E00D009A007D00C5013260D50BA
:1003680014220E50152200D0D8900B320A320932CE
:10037800D8900C360D360E36162EEDD700D0090E55
:10038800166E00D009A007D00C5013260D50142269
:100398000E50152200D0D8900B320A320932D8906C
:1003A800153214321332162EEDD700D013C001F0D7
:1003B80014C002F015C003F012C004F017C005F015
:1003C80061EC02F001C009F002C00AF003C00BF0B2
:1003D80000D012001AC01CF01D6A1E6A19341C369F
:1003E80001E31D801C50266E2650D8A402D039D0B7
:1003F80063D0170E1C6E18C01DF019C01EF01AC06D
:100408001FF01C28206E04D0D8901F321E321D32D7
:10041800202EFAD71D50216E198EFF0E1816FF0ECA
:100428001916000E1A161850226E1950236E1A50FB
:10043800246E256A8E0E265E26AE10D02650800ABF
:100448008F0FD8B003D00DD037D000D0D890253238
:10045800243223322232263EF9D719D0170E2664C9
:1004680011D0000E186E000E196E000E1A6E000ED6
:100478001B6E22D007D0D890223623362436253654
:10048800260600D02650D8B402D0F5D700D0215087
:10049800D8B409D0251E241E231E226C000E232248
:1004A8002422252200D022C018F023C019F024C02D
:1004B8001AF025C01BF000D012000450D8B405D0A3
:1004C800015002100310D8A40ED0000E016E000EC9
:1004D800026E000E036E53D006D0042AD890033261
:1004E8000232013200D0000E0114066E000E021412
:1004F800076EFE0E0314086E065007100810D8B4D5
:100508000ED0EBD70CD0042A010E0126000E0222D1
:10051800000E0322D89003320232013200D0000EBE
:100528000114066E000E0214076EFF0E0314086E07
:10053800065007100810D8B408D0E5D706D004062E
:10054800D89001360236033600D002BE04D0020E1F
:100558000460F5D700D004B002D0029E00D0D89035
:100568000432045003120550D8B402D0038E00D0D0
:1005780001C001F002C002F003C003F000D0120075
:1005880003AE17D001C007F002C008F003C009F09D
:10059800071E081E091E072A000E08220922000E3F
:1005A8000724016E000E0820026E800E0920036EDB
:1005B80000D006AE17D004C007F005C008F006C08A
:1005C80009F0071E081E091E072A000E0822092224
:1005D800000E0724046E000E0820056E800E092008
:1005E800066E00D0000E011A000E021A800E031AC1
:1005F800000E041A000E051A800E061A0450015C3B
:100608000550025806500358D8B002D0D89002D0EE
:10061800D88000D012000001626F3F0EC716000E8E
:10062800C66E00016251C61200016151C71205D0A1
:10063800C78C14D0C78CC68811D000016051000A3D
:10064800D8B4F6D7020AD8B4F5D7010AD8B4F3D784
:1006580005D0928A93820BD0939209D000016251FF
:10066800040AD8B4F6D7010AD8B4F4D7F5D79380DA
:10067800949EC68A120082809490000E0001606FDA
:10068800000E0001616F000E0FEC03F0C20ED56E74
:100698001C0ED66EF00EF26EFFD70CEF00F0026E55
:1006A800C9CF01F09E96C69E02C0C9FFC6BE07D03C
:1006B80002D005D000D09EB602D0FDD700D01200DF
:1006C800829004500F0B056E300E0512055053EC46
:1006D80003F003C005F0055053EC03F082801200CC
:1006E800396A386A376A000EF86E00013FEF03F086
:020000040020DA
:08000000FFFFFFFFFFFFFFFF00
:020000040030CA
:0E00000000051F1FFF8385FF0FC00FE00F409C
:00000001FF
